:1000000012C02CC02BC02AC029C028C027C026C0BF
:1000100025C024C023C022C021C020C01FC01EC0D4
:100020001DC01CC01BC011241FBECFE5D4E0DEBF25
:10003000CDBF10E0A0E6B0E0EAE5F1E002C0059037
:100040000D92A036B107D9F710E0A0E6B0E001C0EC
:100050001D92A036B107E1F770D07DC0D1CFDF93FC
:10006000CF9300D000D0CDB7DEB769837A838B837E
:100070009C8389819A81AB81BC810097A105B105E0
:1000800099F089819A81AB81BC810197A109B1095D
:1000900089839A83AB83BC8389819A81AB81BC813C
:1000A0000097A105B10569F70F900F900F900F9081
:1000B000CF91DF910895DF93CF9300D000D0CDB7DB
:1000C000DEB783FD05C082FF35C084E188BB04C074
:1000D00081FF2DC08CE088BB84EF91E0A0E0B0E010
:1000E00089839A83AB83BC8389819A81AB81BC81EC
:1000F0000097A105B10599F089819A81AB81BC81F6
:100100000197A109B10989839A83AB83BC83898153
:100110009A81AB81BC810097A105B10569F718BA36
:100120000F900F900F900F90CF91DF91089582E183
:1001300088BBD2CF8AE088BBCFCF80E18AB910BC20
:1001400089E189B986EA80BD8FEF87BB5D9BFECFD1
:0A0150008CB1B1DFFBCFF894FFCFB4
:00000001FF
